:100000000C942A000C9449000C9447000C9447006F
:100010000C9447000C9447000C9447000C94470044
:100020000C9447000C9447000C9447000C94470034
:100030000C9447000C9447000C9447000C94470024
:100040000C9447000C9447000C9447000C94470014
:100050000C94470011241FBECFE5D8E0DEBFCDBF12
:1000600010E0A0E6B0E0E8EEF3E002C005900D92EB
:10007000A236B107D9F710E0A2E6B0E001C01D92A8
:10008000A736B107E1F70E9486000C94F2010C94A8
:1000900000001F920F920FB60F9211248F939F931F
:1000A00080916400882339F48EB581608EBD81E033
:1000B000809364000BC01EBC8CB59DB5909363000B
:1000C000809362001DBC1CBC109264009F918F91B4
:1000D0000F900FBE0F901F9018958A988B9AB89A20
:1000E000089585B7816085BF8BB780648BBF089505
:1000F000539A80B5866880BD8091600089B9089563
:100100005D9BFECF8CB95E9BFECF08951F93CF936E
:10011000DF930E946D00539A80B5866880BD809100
:10012000600089B985B7816085BF8BB780648BBF5C
:1001300078941AE1C8ECD0E0939A812F8A95F1F770
:100140009398609162007091630080E090E00E945B
:10015000010120E030E040E85DE30E94670120E01B
:1001600030E040E05FE30E94670126E933E44BE0C2
:100170005DE30E9467010E94D50070936600609362
:1001800065006A30710528F48FE40E948000C09AEF
:1001900004C088E50E948000C0988CED95E0FE01C7
:1001A0003197F1F7019741F2FACF70D088F09F575D
:1001B00090F0B92F9927B751A0F0D1F0660F771FB3
:1001C000881F991F1AF0BA95C9F712C0B13081F093
:1001D00077D0B1E0089574C0672F782F8827B85F73
:1001E00039F0B93FCCF3869577956795B395D9F7F4
:1001F0003EF490958095709561957F4F8F4F9F4FFE
:100200000895E89409C097FB3EF490958095709509
:1002100061957F4F8F4F9F4F9923A9F0F92F96E952
:10022000BB279395F695879577956795B795F111C7
:10023000F8CFFAF4BB0F11F460FF1BC06F5F7F4F64
:100240008F4F9F4F16C0882311F096E911C0772376
:1002500021F09EE8872F762F05C0662371F096E87F
:10026000862F70E060E02AF09A95660F771F881F4E
:10027000DAF7880F9695879597F9089557FD905866
:10028000440F551F59F05F3F71F04795880F97FB5A
:10029000991F61F09F3F79F0879508951216130614
:1002A0001406551FF2CF4695F1DF08C01616170643
:1002B0001806991FF1CF8695710561050894089578
:1002C000E894BB2766277727CB0197F908950BD0D1
:1002D00078C069D028F06ED018F0952309F05AC084
:1002E0005FC01124EECFCADFA0F3959FD1F3950F25
:1002F00050E0551F629FF001729FBB27F00DB11DAA
:10030000639FAA27F00DB11DAA1F649F6627B00D39
:10031000A11D661F829F2227B00DA11D621F739F22
:10032000B00DA11D621F839FA00D611D221F749F30
:100330003327A00D611D231F849F600D211D822F77
:10034000762F6A2F11249F5750408AF0E1F08823BE
:100350004AF0EE0FFF1FBB1F661F771F881F9150CB
:100360005040A9F79E3F510570F014C0AACF5F3FDF
:10037000ECF3983EDCF3869577956795B795F795FE
:10038000E7959F5FC1F7FE2B880F911D9695879586
:1003900097F9089597F99F6780E870E060E0089505
:1003A0009FEF80EC089500240A941616170618068D
:1003B0000906089500240A94121613061406050669
:1003C0000895092E0394000C11F4882352F0BB0FFA
:1003D00040F4BF2B11F460FF04C06F5F7F4F8F4F5D
:0803E0009F4F0895F894FFCF30
:0203E8003300E0
:00000001FF
